{
  "_format": "hh-sol-artifact-1",
  "contractName": "NFTMarketplace",
  "sourceName": "contracts/NFTMarketplace.sol",
  "abi": [
    {
      "inputs": [],
      "stateMutability": "nonpayable",
      "type": "constructor"
    },
    {
      "anonymous": false,
      "inputs": [
        {
          "indexed": true,
          "internalType": "address",
          "name": "owner",
          "type": "address"
        },
        {
          "indexed": true,
          "internalType": "address",
          "name": "approved",
          "type": "address"
        },
        {
          "indexed": true,
          "internalType": "uint256",
          "name": "tokenId",
          "type": "uint256"
        }
      ],
      "name": "Approval",
      "type": "event"
    },
    {
      "anonymous": false,
      "inputs": [
        {
          "indexed": true,
          "internalType": "address",
          "name": "owner",
          "type": "address"
        },
        {
          "indexed": true,
          "internalType": "address",
          "name": "operator",
          "type": "address"
        },
        {
          "indexed": false,
          "internalType": "bool",
          "name": "approved",
          "type": "bool"
        }
      ],
      "name": "ApprovalForAll",
      "type": "event"
    },
    {
      "anonymous": false,
      "inputs": [
        {
          "indexed": true,
          "internalType": "uint256",
          "name": "tokenId",
          "type": "uint256"
        },
        {
          "indexed": false,
          "internalType": "address",
          "name": "seller",
          "type": "address"
        },
        {
          "indexed": false,
          "internalType": "address",
          "name": "owner",
          "type": "address"
        },
        {
          "indexed": false,
          "internalType": "uint256",
          "name": "price",
          "type": "uint256"
        },
        {
          "indexed": false,
          "internalType": "bool",
          "name": "sold",
          "type": "bool"
        }
      ],
      "name": "MarketItemCreated",
      "type": "event"
    },
    {
      "anonymous": false,
      "inputs": [
        {
          "indexed": true,
          "internalType": "address",
          "name": "from",
          "type": "address"
        },
        {
          "indexed": true,
          "internalType": "address",
          "name": "to",
          "type": "address"
        },
        {
          "indexed": true,
          "internalType": "uint256",
          "name": "tokenId",
          "type": "uint256"
        }
      ],
      "name": "Transfer",
      "type": "event"
    },
    {
      "inputs": [
        {
          "internalType": "address",
          "name": "to",
          "type": "address"
        },
        {
          "internalType": "uint256",
          "name": "tokenId",
          "type": "uint256"
        }
      ],
      "name": "approve",
      "outputs": [],
      "stateMutability": "nonpayable",
      "type": "function"
    },
    {
      "inputs": [
        {
          "internalType": "address",
          "name": "owner",
          "type": "address"
        }
      ],
      "name": "balanceOf",
      "outputs": [
        {
          "internalType": "uint256",
          "name": "",
          "type": "uint256"
        }
      ],
      "stateMutability": "view",
      "type": "function"
    },
    {
      "inputs": [
        {
          "internalType": "uint256",
          "name": "tokenId",
          "type": "uint256"
        }
      ],
      "name": "createMarketSale",
      "outputs": [],
      "stateMutability": "payable",
      "type": "function"
    },
    {
      "inputs": [
        {
          "internalType": "string",
          "name": "tokenURI",
          "type": "string"
        },
        {
          "internalType": "uint256",
          "name": "price",
          "type": "uint256"
        }
      ],
      "name": "createToken",
      "outputs": [
        {
          "internalType": "uint256",
          "name": "",
          "type": "uint256"
        }
      ],
      "stateMutability": "payable",
      "type": "function"
    },
    {
      "inputs": [],
      "name": "fetchItemsListed",
      "outputs": [
        {
          "components": [
            {
              "internalType": "uint256",
              "name": "tokenId",
              "type": "uint256"
            },
            {
              "internalType": "address payable",
              "name": "seller",
              "type": "address"
            },
            {
              "internalType": "address payable",
              "name": "owner",
              "type": "address"
            },
            {
              "internalType": "uint256",
              "name": "price",
              "type": "uint256"
            },
            {
              "internalType": "bool",
              "name": "sold",
              "type": "bool"
            }
          ],
          "internalType": "struct NFTMarketplace.MarketItem[]",
          "name": "",
          "type": "tuple[]"
        }
      ],
      "stateMutability": "view",
      "type": "function"
    },
    {
      "inputs": [],
      "name": "fetchMarketItems",
      "outputs": [
        {
          "components": [
            {
              "internalType": "uint256",
              "name": "tokenId",
              "type": "uint256"
            },
            {
              "internalType": "address payable",
              "name": "seller",
              "type": "address"
            },
            {
              "internalType": "address payable",
              "name": "owner",
              "type": "address"
            },
            {
              "internalType": "uint256",
              "name": "price",
              "type": "uint256"
            },
            {
              "internalType": "bool",
              "name": "sold",
              "type": "bool"
            }
          ],
          "internalType": "struct NFTMarketplace.MarketItem[]",
          "name": "",
          "type": "tuple[]"
        }
      ],
      "stateMutability": "view",
      "type": "function"
    },
    {
      "inputs": [],
      "name": "fetchMyItems",
      "outputs": [
        {
          "components": [
            {
              "internalType": "uint256",
              "name": "tokenId",
              "type": "uint256"
            },
            {
              "internalType": "address payable",
              "name": "seller",
              "type": "address"
            },
            {
              "internalType": "address payable",
              "name": "owner",
              "type": "address"
            },
            {
              "internalType": "uint256",
              "name": "price",
              "type": "uint256"
            },
            {
              "internalType": "bool",
              "name": "sold",
              "type": "bool"
            }
          ],
          "internalType": "struct NFTMarketplace.MarketItem[]",
          "name": "",
          "type": "tuple[]"
        }
      ],
      "stateMutability": "view",
      "type": "function"
    },
    {
      "inputs": [
        {
          "internalType": "uint256",
          "name": "tokenId",
          "type": "uint256"
        }
      ],
      "name": "getApproved",
      "outputs": [
        {
          "internalType": "address",
          "name": "",
          "type": "address"
        }
      ],
      "stateMutability": "view",
      "type": "function"
    },
    {
      "inputs": [],
      "name": "getListingPrice",
      "outputs": [
        {
          "internalType": "uint256",
          "name": "",
          "type": "uint256"
        }
      ],
      "stateMutability": "view",
      "type": "function"
    },
    {
      "inputs": [],
      "name": "getOwnerCommissionPercentage",
      "outputs": [
        {
          "internalType": "uint256",
          "name": "",
          "type": "uint256"
        }
      ],
      "stateMutability": "view",
      "type": "function"
    },
    {
      "inputs": [
        {
          "internalType": "address",
          "name": "owner",
          "type": "address"
        },
        {
          "internalType": "address",
          "name": "operator",
          "type": "address"
        }
      ],
      "name": "isApprovedForAll",
      "outputs": [
        {
          "internalType": "bool",
          "name": "",
          "type": "bool"
        }
      ],
      "stateMutability": "view",
      "type": "function"
    },
    {
      "inputs": [],
      "name": "name",
      "outputs": [
        {
          "internalType": "string",
          "name": "",
          "type": "string"
        }
      ],
      "stateMutability": "view",
      "type": "function"
    },
    {
      "inputs": [
        {
          "internalType": "uint256",
          "name": "tokenId",
          "type": "uint256"
        }
      ],
      "name": "ownerOf",
      "outputs": [
        {
          "internalType": "address",
          "name": "",
          "type": "address"
        }
      ],
      "stateMutability": "view",
      "type": "function"
    },
    {
      "inputs": [
        {
          "internalType": "uint256",
          "name": "tokenId",
          "type": "uint256"
        },
        {
          "internalType": "uint256",
          "name": "price",
          "type": "uint256"
        }
      ],
      "name": "resellToken",
      "outputs": [],
      "stateMutability": "payable",
      "type": "function"
    },
    {
      "inputs": [
        {
          "internalType": "address",
          "name": "from",
          "type": "address"
        },
        {
          "internalType": "address",
          "name": "to",
          "type": "address"
        },
        {
          "internalType": "uint256",
          "name": "tokenId",
          "type": "uint256"
        }
      ],
      "name": "safeTransferFrom",
      "outputs": [],
      "stateMutability": "nonpayable",
      "type": "function"
    },
    {
      "inputs": [
        {
          "internalType": "address",
          "name": "from",
          "type": "address"
        },
        {
          "internalType": "address",
          "name": "to",
          "type": "address"
        },
        {
          "internalType": "uint256",
          "name": "tokenId",
          "type": "uint256"
        },
        {
          "internalType": "bytes",
          "name": "_data",
          "type": "bytes"
        }
      ],
      "name": "safeTransferFrom",
      "outputs": [],
      "stateMutability": "nonpayable",
      "type": "function"
    },
    {
      "inputs": [
        {
          "internalType": "address",
          "name": "operator",
          "type": "address"
        },
        {
          "internalType": "bool",
          "name": "approved",
          "type": "bool"
        }
      ],
      "name": "setApprovalForAll",
      "outputs": [],
      "stateMutability": "nonpayable",
      "type": "function"
    },
    {
      "inputs": [
        {
          "internalType": "bytes4",
          "name": "interfaceId",
          "type": "bytes4"
        }
      ],
      "name": "supportsInterface",
      "outputs": [
        {
          "internalType": "bool",
          "name": "",
          "type": "bool"
        }
      ],
      "stateMutability": "view",
      "type": "function"
    },
    {
      "inputs": [],
      "name": "symbol",
      "outputs": [
        {
          "internalType": "string",
          "name": "",
          "type": "string"
        }
      ],
      "stateMutability": "view",
      "type": "function"
    },
    {
      "inputs": [
        {
          "internalType": "uint256",
          "name": "tokenId",
          "type": "uint256"
        }
      ],
      "name": "tokenURI",
      "outputs": [
        {
          "internalType": "string",
          "name": "",
          "type": "string"
        }
      ],
      "stateMutability": "view",
      "type": "function"
    },
    {
      "inputs": [
        {
          "internalType": "address",
          "name": "from",
          "type": "address"
        },
        {
          "internalType": "address",
          "name": "to",
          "type": "address"
        },
        {
          "internalType": "uint256",
          "name": "tokenId",
          "type": "uint256"
        }
      ],
      "name": "transferFrom",
      "outputs": [],
      "stateMutability": "nonpayable",
      "type": "function"
    },
    {
      "inputs": [
        {
          "internalType": "uint256",
          "name": "_listingPrice",
          "type": "uint256"
        }
      ],
      "name": "updateListingPrice",
      "outputs": [],
      "stateMutability": "payable",
      "type": "function"
    },
    {
      "inputs": [
        {
          "internalType": "uint256",
          "name": "_ownerCommissionPercentage",
          "type": "uint256"
        }
      ],
      "name": "updateOwnerCommissionPercentage",
      "outputs": [],
      "stateMutability": "payable",
      "type": "function"
    }
  ],
  "bytecode": "0x6080604052662386f26fc10000600955600f600a55600a546103e8620000269190620001ce565b600b553480156200003657600080fd5b506040518060400160405280600981526020017f4a534720546f6b656e00000000000000000000000000000000000000000000008152506040518060400160405280600381526020017f4a534700000000000000000000000000000000000000000000000000000000008152508160009080519060200190620000bb9291906200011e565b508060019080519060200190620000d49291906200011e565b50505033600c60006101000a81548173ffffffffffffffffffffffffffffffffffffffff021916908373ffffffffffffffffffffffffffffffffffffffff160217905550620002a7565b8280546200012c9062000213565b90600052602060002090601f0160209004810192826200015057600085556200019c565b82601f106200016b57805160ff19168380011785556200019c565b828001600101855582156200019c579182015b828111156200019b5782518255916020019190600101906200017e565b5b509050620001ab9190620001af565b5090565b5b80821115620001ca576000816000905550600101620001b0565b5090565b6000620001db8262000209565b9150620001e88362000209565b925082821015620001fe57620001fd62000249565b5b828203905092915050565b6000819050919050565b600060028204905060018216806200022c57607f821691505b6020821081141562000243576200024262000278565b5b50919050565b7f4e487b7100000000000000000000000000000000000000000000000000000000600052601160045260246000fd5b7f4e487b7100000000000000000000000000000000000000000000000000000000600052602260045260246000fd5b61457e80620002b76000396000f3fe6080604052600436106101405760003560e01c80636352211e116100b6578063b88d4fde1161006f578063b88d4fde14610447578063be9af53614610470578063c87b56dd1461048c578063e219fc75146104c9578063e985e9c5146104e5578063f060a4471461052257610140565b80636352211e1461032d57806370a082311461036a57806372b3b620146103a757806395d89b41146103d7578063a22cb46514610402578063ae677aa31461042b57610140565b806312e855851161010857806312e855851461023e57806315c9ae101461026957806323b872dd146102945780633ff7abca146102bd57806342842e0e146102d957806345f8fa801461030257610140565b806301ffc9a71461014557806306fdde0314610182578063081812fc146101ad578063095ea7b3146101ea5780630f08efe014610213575b600080fd5b34801561015157600080fd5b5061016c60048036038101906101679190613064565b61054d565b604051610179919061373e565b60405180910390f35b34801561018e57600080fd5b5061019761062f565b6040516101a49190613759565b60405180910390f35b3480156101b957600080fd5b506101d460048036038101906101cf919061310a565b6106c1565b6040516101e19190613670565b60405180910390f35b3480156101f657600080fd5b50610211600480360381019061020c9190613028565b610746565b005b34801561021f57600080fd5b5061022861085e565b604051610235919061371c565b60405180910390f35b34801561024a57600080fd5b50610253610b13565b6040516102609190613a3b565b60405180910390f35b34801561027557600080fd5b5061027e610b1d565b60405161028b919061371c565b60405180910390f35b3480156102a057600080fd5b506102bb60048036038101906102b69190612f22565b610e57565b005b6102d760048036038101906102d2919061310a565b610eb7565b005b3480156102e557600080fd5b5061030060048036038101906102fb9190612f22565b610f51565b005b34801561030e57600080fd5b50610317610f71565b604051610324919061371c565b60405180910390f35b34801561033957600080fd5b50610354600480360381019061034f919061310a565b6112ab565b6040516103619190613670565b60405180910390f35b34801561037657600080fd5b50610391600480360381019061038c9190612ebd565b61135d565b60405161039e9190613a3b565b60405180910390f35b6103c160048036038101906103bc91906130b6565b611415565b6040516103ce9190613a3b565b60405180910390f35b3480156103e357600080fd5b506103ec611457565b6040516103f99190613759565b60405180910390f35b34801561040e57600080fd5b5061042960048036038101906104249190612fec565b6114e9565b005b6104456004803603810190610440919061310a565b6114ff565b005b34801561045357600080fd5b5061046e60048036038101906104699190612f71565b611599565b005b61048a6004803603810190610485919061310a565b6115fb565b005b34801561049857600080fd5b506104b360048036038101906104ae919061310a565b6118b2565b6040516104c09190613759565b60405180910390f35b6104e360048036038101906104de9190613133565b611a04565b005b3480156104f157600080fd5b5061050c60048036038101906105079190612ee6565b611bf9565b604051610519919061373e565b60405180910390f35b34801561052e57600080fd5b50610537611c8d565b6040516105449190613a3b565b60405180910390f35b60007f80ac58cd000000000000000000000000000000000000000000000000000000007bffffffffffffffffffffffffffffffffffffffffffffffffffffffff1916827bffffffffffffffffffffffffffffffffffffffffffffffffffffffff1916148061061857507f5b5e139f000000000000000000000000000000000000000000000000000000007bffffffffffffffffffffffffffffffffffffffffffffffffffffffff1916827bffffffffffffffffffffffffffffffffffffffffffffffffffffffff1916145b80610628575061062782611c97565b5b9050919050565b60606000805461063e90613d36565b80601f016020809104026020016040519081016040528092919081815260200182805461066a90613d36565b80156106b75780601f1061068c576101008083540402835291602001916106b7565b820191906000526020600020905b81548152906001019060200180831161069a57829003601f168201915b5050505050905090565b60006106cc82611d01565b61070b576040517f08c379a00000000000000000000000000000000000000000000000000000000081526004016107029061393b565b60405180910390fd5b6004600083815260200190815260200160002060009054906101000a900473ffffffffffffffffffffffffffffffffffffffff169050919050565b6000610751826112ab565b90508073ffffffffffffffffffffffffffffffffffffffff168373ffffffffffffffffffffffffffffffffffffffff1614156107c2576040517f08c379a00000000000000000000000000000000000000000000000000000000081526004016107b99061399b565b60405180910390fd5b8073ffffffffffffffffffffffffffffffffffffffff166107e1611d6d565b73ffffffffffffffffffffffffffffffffffffffff161480610810575061080f8161080a611d6d565b611bf9565b5b61084f576040517f08c379a00000000000000000000000000000000000000000000000000000000081526004016108469061387b565b60405180910390fd5b6108598383611d75565b505050565b6060600061086c6007611e2e565b9050600061087a6008611e2e565b6108846007611e2e565b61088e9190613c3a565b90506000808267ffffffffffffffff8111156108d3577f4e487b7100000000000000000000000000000000000000000000000000000000600052604160045260246000fd5b60405190808252806020026020018201604052801561090c57816020015b6108f9612c84565b8152602001906001900390816108f15790505b50905060005b84811015610b08573073ffffffffffffffffffffffffffffffffffffffff16600d60006001846109429190613b59565b815260200190815260200160002060020160009054906101000a900473ffffffffffffffffffffffffffffffffffffffff1673ffffffffffffffffffffffffffffffffffffffff161415610af557600060018261099f9190613b59565b90506000600d60008381526020019081526020016000209050806040518060a0016040529081600082015481526020016001820160009054906101000a900473ffffffffffffffffffffffffffffffffffffffff1673ffffffffffffffffffffffffffffffffffffffff1673ffffffffffffffffffffffffffffffffffffffff1681526020016002820160009054906101000a900473ffffffffffffffffffffffffffffffffffffffff1673ffffffffffffffffffffffffffffffffffffffff1673ffffffffffffffffffffffffffffffffffffffff168152602001600382015481526020016004820160009054906101000a900460ff161515151581525050848681518110610ad8577f4e487b7100000000000000000000000000000000000000000000000000000000600052603260045260246000fd5b6020026020010181905250600185610af09190613b59565b945050505b8080610b0090613d99565b915050610912565b508094505050505090565b6000600954905090565b60606000610b2b6007611e2e565b905060008060005b83811015610bd4573373ffffffffffffffffffffffffffffffffffffffff16600d6000600184610b639190613b59565b815260200190815260200160002060020160009054906101000a900473ffffffffffffffffffffffffffffffffffffffff1673ffffffffffffffffffffffffffffffffffffffff161415610bc157600183610bbe9190613b59565b92505b8080610bcc90613d99565b915050610b33565b5060008267ffffffffffffffff811115610c17577f4e487b7100000000000000000000000000000000000000000000000000000000600052604160045260246000fd5b604051908082528060200260200182016040528015610c5057816020015b610c3d612c84565b815260200190600190039081610c355790505b50905060005b84811015610e4c573373ffffffffffffffffffffffffffffffffffffffff16600d6000600184610c869190613b59565b815260200190815260200160002060020160009054906101000a900473ffffffffffffffffffffffffffffffffffffffff1673ffffffffffffffffffffffffffffffffffffffff161415610e39576000600182610ce39190613b59565b90506000600d60008381526020019081526020016000209050806040518060a0016040529081600082015481526020016001820160009054906101000a900473ffffffffffffffffffffffffffffffffffffffff1673ffffffffffffffffffffffffffffffffffffffff1673ffffffffffffffffffffffffffffffffffffffff1681526020016002820160009054906101000a900473ffffffffffffffffffffffffffffffffffffffff1673ffffffffffffffffffffffffffffffffffffffff1673ffffffffffffffffffffffffffffffffffffffff168152602001600382015481526020016004820160009054906101000a900460ff161515151581525050848681518110610e1c577f4e487b7100000000000000000000000000000000000000000000000000000000600052603260045260246000fd5b6020026020010181905250600185610e349190613b59565b945050505b8080610e4490613d99565b915050610c56565b508094505050505090565b610e68610e62611d6d565b82611e3c565b610ea7576040517f08c379a0000000000000000000000000000000000000000000000000000000008152600401610e9e906139db565b60405180910390fd5b610eb2838383611f1a565b505050565b3373ffffffffffffffffffffffffffffffffffffffff16600c60009054906101000a900473ffffffffffffffffffffffffffffffffffffffff1673ffffffffffffffffffffffffffffffffffffffff1614610f47576040517f08c379a0000000000000000000000000000000000000000000000000000000008152600401610f3e906137fb565b60405180910390fd5b80600a8190555050565b610f6c83838360405180602001604052806000815250611599565b505050565b60606000610f7f6007611e2e565b905060008060005b83811015611028573373ffffffffffffffffffffffffffffffffffffffff16600d6000600184610fb79190613b59565b815260200190815260200160002060010160009054906101000a900473ffffffffffffffffffffffffffffffffffffffff1673ffffffffffffffffffffffffffffffffffffffff161415611015576001836110129190613b59565b92505b808061102090613d99565b915050610f87565b5060008267ffffffffffffffff81111561106b577f4e487b7100000000000000000000000000000000000000000000000000000000600052604160045260246000fd5b6040519080825280602002602001820160405280156110a457816020015b611091612c84565b8152602001906001900390816110895790505b50905060005b848110156112a0573373ffffffffffffffffffffffffffffffffffffffff16600d60006001846110da9190613b59565b815260200190815260200160002060010160009054906101000a900473ffffffffffffffffffffffffffffffffffffffff1673ffffffffffffffffffffffffffffffffffffffff16141561128d5760006001826111379190613b59565b90506000600d60008381526020019081526020016000209050806040518060a0016040529081600082015481526020016001820160009054906101000a900473ffffffffffffffffffffffffffffffffffffffff1673ffffffffffffffffffffffffffffffffffffffff1673ffffffffffffffffffffffffffffffffffffffff1681526020016002820160009054906101000a900473ffffffffffffffffffffffffffffffffffffffff1673ffffffffffffffffffffffffffffffffffffffff1673ffffffffffffffffffffffffffffffffffffffff168152602001600382015481526020016004820160009054906101000a900460ff161515151581525050848681518110611270577f4e487b7100000000000000000000000000000000000000000000000000000000600052603260045260246000fd5b60200260200101819052506001856112889190613b59565b945050505b808061129890613d99565b9150506110aa565b508094505050505090565b6000806002600084815260200190815260200160002060009054906101000a900473ffffffffffffffffffffffffffffffffffffffff169050600073ffffffffffffffffffffffffffffffffffffffff168173ffffffffffffffffffffffffffffffffffffffff161415611354576040517f08c379a000000000000000000000000000000000000000000000000000000000815260040161134b906138bb565b60405180910390fd5b80915050919050565b60008073ffffffffffffffffffffffffffffffffffffffff168273ffffffffffffffffffffffffffffffffffffffff1614156113ce576040517f08c379a00000000000000000000000000000000000000000000000000000000081526004016113c59061389b565b60405180910390fd5b600360008373ffffffffffffffffffffffffffffffffffffffff1673ffffffffffffffffffffffffffffffffffffffff168152602001908152602001600020549050919050565b60006114216007612181565b600061142d6007611e2e565b90506114393382612197565b6114438185612371565b61144d81846123e5565b8091505092915050565b60606001805461146690613d36565b80601f016020809104026020016040519081016040528092919081815260200182805461149290613d36565b80156114df5780601f106114b4576101008083540402835291602001916114df565b820191906000526020600020905b8154815290600101906020018083116114c257829003601f168201915b5050505050905090565b6114fb6114f4611d6d565b83836125e8565b5050565b3373ffffffffffffffffffffffffffffffffffffffff16600c60009054906101000a900473ffffffffffffffffffffffffffffffffffffffff1673ffffffffffffffffffffffffffffffffffffffff161461158f576040517f08c379a0000000000000000000000000000000000000000000000000000000008152600401611586906137fb565b60405180910390fd5b8060098190555050565b6115aa6115a4611d6d565b83611e3c565b6115e9576040517f08c379a00000000000000000000000000000000000000000000000000000000081526004016115e0906139db565b60405180910390fd5b6115f584848484612755565b50505050565b6000600d60008381526020019081526020016000206003015490506000600d600084815260200190815260200160002060010160009054906101000a900473ffffffffffffffffffffffffffffffffffffffff169050813414611693576040517f08c379a000000000000000000000000000000000000000000000000000000000815260040161168a90613a1b565b60405180910390fd5b33600d600085815260200190815260200160002060020160006101000a81548173ffffffffffffffffffffffffffffffffffffffff021916908373ffffffffffffffffffffffffffffffffffffffff1602179055506001600d600085815260200190815260200160002060040160006101000a81548160ff0219169083151502179055506000600d600085815260200190815260200160002060010160006101000a81548173ffffffffffffffffffffffffffffffffffffffff021916908373ffffffffffffffffffffffffffffffffffffffff1602179055506117776008612181565b611782303385611f1a565b600c60009054906101000a900473ffffffffffffffffffffffffffffffffffffffff1673ffffffffffffffffffffffffffffffffffffffff166108fc6009549081150290604051600060405180830381858888f193505050501580156117ec573d6000803e3d6000fd5b50600c60009054906101000a900473ffffffffffffffffffffffffffffffffffffffff1673ffffffffffffffffffffffffffffffffffffffff166108fc611832346127b1565b9081150290604051600060405180830381858888f1935050505015801561185d573d6000803e3d6000fd5b508073ffffffffffffffffffffffffffffffffffffffff166108fc611881346127d5565b9081150290604051600060405180830381858888f193505050501580156118ac573d6000803e3d6000fd5b50505050565b60606118bd82611d01565b6118fc576040517f08c379a00000000000000000000000000000000000000000000000000000000081526004016118f39061391b565b60405180910390fd5b600060066000848152602001908152602001600020805461191c90613d36565b80601f016020809104026020016040519081016040528092919081815260200182805461194890613d36565b80156119955780601f1061196a57610100808354040283529160200191611995565b820191906000526020600020905b81548152906001019060200180831161197857829003601f168201915b5050505050905060006119a66127f9565b90506000815114156119bc5781925050506119ff565b6000825111156119f15780826040516020016119d992919061364c565b604051602081830303815290604052925050506119ff565b6119fa84612810565b925050505b919050565b3373ffffffffffffffffffffffffffffffffffffffff16600d600084815260200190815260200160002060020160009054906101000a900473ffffffffffffffffffffffffffffffffffffffff1673ffffffffffffffffffffffffffffffffffffffff1614611aa8576040517f08c379a0000000000000000000000000000000000000000000000000000000008152600401611a9f906139fb565b60405180910390fd5b6009543414611aec576040517f08c379a0000000000000000000000000000000000000000000000000000000008152600401611ae3906139bb565b60405180910390fd5b6000600d600084815260200190815260200160002060040160006101000a81548160ff02191690831515021790555080600d60008481526020019081526020016000206003018190555033600d600084815260200190815260200160002060010160006101000a81548173ffffffffffffffffffffffffffffffffffffffff021916908373ffffffffffffffffffffffffffffffffffffffff16021790555030600d600084815260200190815260200160002060020160006101000a81548173ffffffffffffffffffffffffffffffffffffffff021916908373ffffffffffffffffffffffffffffffffffffffff160217905550611bea60086128b7565b611bf5333084611f1a565b5050565b6000600560008473ffffffffffffffffffffffffffffffffffffffff1673ffffffffffffffffffffffffffffffffffffffff16815260200190815260200160002060008373ffffffffffffffffffffffffffffffffffffffff1673ffffffffffffffffffffffffffffffffffffffff16815260200190815260200160002060009054906101000a900460ff16905092915050565b6000600a54905090565b60007f01ffc9a7000000000000000000000000000000000000000000000000000000007bffffffffffffffffffffffffffffffffffffffffffffffffffffffff1916827bffffffffffffffffffffffffffffffffffffffffffffffffffffffff1916149050919050565b60008073ffffffffffffffffffffffffffffffffffffffff166002600084815260200190815260200160002060009054906101000a900473ffffffffffffffffffffffffffffffffffffffff1673ffffffffffffffffffffffffffffffffffffffff1614159050919050565b600033905090565b816004600083815260200190815260200160002060006101000a81548173ffffffffffffffffffffffffffffffffffffffff021916908373ffffffffffffffffffffffffffffffffffffffff160217905550808273ffffffffffffffffffffffffffffffffffffffff16611de8836112ab565b73ffffffffffffffffffffffffffffffffffffffff167f8c5be1e5ebec7d5bd14f71427d1e84f3dd0314c0f7b2291e5b200ac8c7c3b92560405160405180910390a45050565b600081600001549050919050565b6000611e4782611d01565b611e86576040517f08c379a0000000000000000000000000000000000000000000000000000000008152600401611e7d9061385b565b60405180910390fd5b6000611e91836112ab565b90508073ffffffffffffffffffffffffffffffffffffffff168473ffffffffffffffffffffffffffffffffffffffff161480611f0057508373ffffffffffffffffffffffffffffffffffffffff16611ee8846106c1565b73ffffffffffffffffffffffffffffffffffffffff16145b80611f115750611f108185611bf9565b5b91505092915050565b8273ffffffffffffffffffffffffffffffffffffffff16611f3a826112ab565b73ffffffffffffffffffffffffffffffffffffffff1614611f90576040517f08c379a0000000000000000000000000000000000000000000000000000000008152600401611f87906137bb565b60405180910390fd5b600073ffffffffffffffffffffffffffffffffffffffff168273ffffffffffffffffffffffffffffffffffffffff161415612000576040517f08c379a0000000000000000000000000000000000000000000000000000000008152600401611ff79061381b565b60405180910390fd5b61200b838383612913565b612016600082611d75565b6001600360008573ffffffffffffffffffffffffffffffffffffffff1673ffffffffffffffffffffffffffffffffffffffff16815260200190815260200160002060008282546120669190613c3a565b925050819055506001600360008473ffffffffffffffffffffffffffffffffffffffff1673ffffffffffffffffffffffffffffffffffffffff16815260200190815260200160002060008282546120bd9190613b59565b92505081905550816002600083815260200190815260200160002060006101000a81548173ffffffffffffffffffffffffffffffffffffffff021916908373ffffffffffffffffffffffffffffffffffffffff160217905550808273ffffffffffffffffffffffffffffffffffffffff168473ffffffffffffffffffffffffffffffffffffffff167fddf252ad1be2c89b69c2b068fc378daa952ba7f163c4a11628f55a4df523b3ef60405160405180910390a461217c838383612918565b505050565b6001816000016000828254019250508190555050565b600073ffffffffffffffffffffffffffffffffffffffff168273ffffffffffffffffffffffffffffffffffffffff161415612207576040517f08c379a00000000000000000000000000000000000000000000000000000000081526004016121fe906138fb565b60405180910390fd5b61221081611d01565b15612250576040517f08c379a0000000000000000000000000000000000000000000000000000000008152600401612247906137db565b60405180910390fd5b61225c60008383612913565b6001600360008473ffffffffffffffffffffffffffffffffffffffff1673ffffffffffffffffffffffffffffffffffffffff16815260200190815260200160002060008282546122ac9190613b59565b92505081905550816002600083815260200190815260200160002060006101000a81548173ffffffffffffffffffffffffffffffffffffffff021916908373ffffffffffffffffffffffffffffffffffffffff160217905550808273ffffffffffffffffffffffffffffffffffffffff16600073ffffffffffffffffffffffffffffffffffffffff167fddf252ad1be2c89b69c2b068fc378daa952ba7f163c4a11628f55a4df523b3ef60405160405180910390a461236d60008383612918565b5050565b61237a82611d01565b6123b9576040517f08c379a00000000000000000000000000000000000000000000000000000000081526004016123b0906138db565b60405180910390fd5b806006600084815260200190815260200160002090805190602001906123e0929190612ce1565b505050565b60008111612428576040517f08c379a000000000000000000000000000000000000000000000000000000000815260040161241f9061397b565b60405180910390fd5b600954341461246c576040517f08c379a0000000000000000000000000000000000000000000000000000000008152600401612463906139bb565b60405180910390fd5b6040518060a001604052808381526020013373ffffffffffffffffffffffffffffffffffffffff1681526020013073ffffffffffffffffffffffffffffffffffffffff16815260200182815260200160001515815250600d60008481526020019081526020016000206000820151816000015560208201518160010160006101000a81548173ffffffffffffffffffffffffffffffffffffffff021916908373ffffffffffffffffffffffffffffffffffffffff16021790555060408201518160020160006101000a81548173ffffffffffffffffffffffffffffffffffffffff021916908373ffffffffffffffffffffffffffffffffffffffff1602179055506060820151816003015560808201518160040160006101000a81548160ff0219169083151502179055509050506125a5333084611f1a565b817fb640004f1d14576d0c209e240cad0410e0d8c0c33a09375861fbadae2588a98d33308460006040516125dc949392919061368b565b60405180910390a25050565b8173ffffffffffffffffffffffffffffffffffffffff168373ffffffffffffffffffffffffffffffffffffffff161415612657576040517f08c379a000000000000000000000000000000000000000000000000000000000815260040161264e9061383b565b60405180910390fd5b80600560008573ffffffffffffffffffffffffffffffffffffffff1673ffffffffffffffffffffffffffffffffffffffff16815260200190815260200160002060008473ffffffffffffffffffffffffffffffffffffffff1673ffffffffffffffffffffffffffffffffffffffff16815260200190815260200160002060006101000a81548160ff0219169083151502179055508173ffffffffffffffffffffffffffffffffffffffff168373ffffffffffffffffffffffffffffffffffffffff167f17307eab39ab6107e8899845ad3d59bd9653f200f220920489ca2b5937696c3183604051612748919061373e565b60405180910390a3505050565b612760848484611f1a565b61276c8484848461291d565b6127ab576040517f08c379a00000000000000000000000000000000000000000000000000000000081526004016127a29061379b565b60405180910390fd5b50505050565b6000600a546103e8836127c49190613baf565b6127ce9190613be0565b9050919050565b6000600b546103e8836127e89190613baf565b6127f29190613be0565b9050919050565b606060405180602001604052806000815250905090565b606061281b82611d01565b61285a576040517f08c379a00000000000000000000000000000000000000000000000000000000081526004016128519061395b565b60405180910390fd5b60006128646127f9565b9050600081511161288457604051806020016040528060008152506128af565b8061288e84612ab4565b60405160200161289f92919061364c565b6040516020818303038152906040525b915050919050565b60008160000154905060008111612903576040517f08c379a00000000000000000000000000000000000000000000000000000000081526004016128fa9061377b565b60405180910390fd5b6001810382600001819055505050565b505050565b505050565b600061293e8473ffffffffffffffffffffffffffffffffffffffff16612c61565b15612aa7578373ffffffffffffffffffffffffffffffffffffffff1663150b7a02612967611d6d565b8786866040518563ffffffff1660e01b815260040161298994939291906136d0565b602060405180830381600087803b1580156129a357600080fd5b505af19250505080156129d457506040513d601f19601f820116820180604052508101906129d1919061308d565b60015b612a57573d8060008114612a04576040519150601f19603f3d011682016040523d82523d6000602084013e612a09565b606091505b50600081511415612a4f576040517f08c379a0000000000000000000000000000000000000000000000000000000008152600401612a469061379b565b60405180910390fd5b805181602001fd5b63150b7a0260e01b7bffffffffffffffffffffffffffffffffffffffffffffffffffffffff1916817bffffffffffffffffffffffffffffffffffffffffffffffffffffffff191614915050612aac565b600190505b949350505050565b60606000821415612afc576040518060400160405280600181526020017f30000000000000000000000000000000000000000000000000000000000000008152509050612c5c565b600082905060005b60008214612b2e578080612b1790613d99565b915050600a82612b279190613baf565b9150612b04565b60008167ffffffffffffffff811115612b70577f4e487b7100000000000000000000000000000000000000000000000000000000600052604160045260246000fd5b6040519080825280601f01601f191660200182016040528015612ba25781602001600182028036833780820191505090505b5090505b60008514612c5557600182612bbb9190613c3a565b9150600a85612bca9190613de2565b6030612bd69190613b59565b60f81b818381518110612c12577f4e487b7100000000000000000000000000000000000000000000000000000000600052603260045260246000fd5b60200101907effffffffffffffffffffffffffffffffffffffffffffffffffffffffffffff1916908160001a905350600a85612c4e9190613baf565b9450612ba6565b8093505050505b919050565b6000808273ffffffffffffffffffffffffffffffffffffffff163b119050919050565b6040518060a0016040528060008152602001600073ffffffffffffffffffffffffffffffffffffffff168152602001600073ffffffffffffffffffffffffffffffffffffffff168152602001600081526020016000151581525090565b828054612ced90613d36565b90600052602060002090601f016020900481019282612d0f5760008555612d56565b82601f10612d2857805160ff1916838001178555612d56565b82800160010185558215612d56579182015b82811115612d55578251825591602001919060010190612d3a565b5b509050612d639190612d67565b5090565b5b80821115612d80576000816000905550600101612d68565b5090565b6000612d97612d9284613a7b565b613a56565b905082815260208101848484011115612daf57600080fd5b612dba848285613cf4565b509392505050565b6000612dd5612dd084613aac565b613a56565b905082815260208101848484011115612ded57600080fd5b612df8848285613cf4565b509392505050565b600081359050612e0f816144ec565b92915050565b600081359050612e2481614503565b92915050565b600081359050612e398161451a565b92915050565b600081519050612e4e8161451a565b92915050565b600082601f830112612e6557600080fd5b8135612e75848260208601612d84565b91505092915050565b600082601f830112612e8f57600080fd5b8135612e9f848260208601612dc2565b91505092915050565b600081359050612eb781614531565b92915050565b600060208284031215612ecf57600080fd5b6000612edd84828501612e00565b91505092915050565b60008060408385031215612ef957600080fd5b6000612f0785828601612e00565b9250506020612f1885828601612e00565b9150509250929050565b600080600060608486031215612f3757600080fd5b6000612f4586828701612e00565b9350506020612f5686828701612e00565b9250506040612f6786828701612ea8565b9150509250925092565b60008060008060808587031215612f8757600080fd5b6000612f9587828801612e00565b9450506020612fa687828801612e00565b9350506040612fb787828801612ea8565b925050606085013567ffffffffffffffff811115612fd457600080fd5b612fe087828801612e54565b91505092959194509250565b60008060408385031215612fff57600080fd5b600061300d85828601612e00565b925050602061301e85828601612e15565b9150509250929050565b6000806040838503121561303b57600080fd5b600061304985828601612e00565b925050602061305a85828601612ea8565b9150509250929050565b60006020828403121561307657600080fd5b600061308484828501612e2a565b91505092915050565b60006020828403121561309f57600080fd5b60006130ad84828501612e3f565b91505092915050565b600080604083850312156130c957600080fd5b600083013567ffffffffffffffff8111156130e357600080fd5b6130ef85828601612e7e565b925050602061310085828601612ea8565b9150509250929050565b60006020828403121561311c57600080fd5b600061312a84828501612ea8565b91505092915050565b6000806040838503121561314657600080fd5b600061315485828601612ea8565b925050602061316585828601612ea8565b9150509250929050565b600061317b83836135c6565b60a08301905092915050565b61319081613c80565b82525050565b61319f81613c6e565b82525050565b60006131b082613aed565b6131ba8185613b1b565b93506131c583613add565b8060005b838110156131f65781516131dd888261316f565b97506131e883613b0e565b9250506001810190506131c9565b5085935050505092915050565b61320c81613c92565b82525050565b61321b81613c92565b82525050565b600061322c82613af8565b6132368185613b2c565b9350613246818560208601613d03565b61324f81613ecf565b840191505092915050565b600061326582613b03565b61326f8185613b3d565b935061327f818560208601613d03565b61328881613ecf565b840191505092915050565b600061329e82613b03565b6132a88185613b4e565b93506132b8818560208601613d03565b80840191505092915050565b60006132d1601b83613b3d565b91506132dc82613ee0565b602082019050919050565b60006132f4603283613b3d565b91506132ff82613f09565b604082019050919050565b6000613317602583613b3d565b915061332282613f58565b604082019050919050565b600061333a601c83613b3d565b915061334582613fa7565b602082019050919050565b600061335d603383613b3d565b915061336882613fd0565b604082019050919050565b6000613380602483613b3d565b915061338b8261401f565b604082019050919050565b60006133a3601983613b3d565b91506133ae8261406e565b602082019050919050565b60006133c6602c83613b3d565b91506133d182614097565b604082019050919050565b60006133e9603883613b3d565b91506133f4826140e6565b604082019050919050565b600061340c602a83613b3d565b915061341782614135565b604082019050919050565b600061342f602983613b3d565b915061343a82614184565b604082019050919050565b6000613452602e83613b3d565b915061345d826141d3565b604082019050919050565b6000613475602083613b3d565b915061348082614222565b602082019050919050565b6000613498603183613b3d565b91506134a38261424b565b604082019050919050565b60006134bb602c83613b3d565b91506134c68261429a565b604082019050919050565b60006134de602f83613b3d565b91506134e9826142e9565b604082019050919050565b6000613501601883613b3d565b915061350c82614338565b602082019050919050565b6000613524602183613b3d565b915061352f82614361565b604082019050919050565b6000613547602483613b3d565b9150613552826143b0565b604082019050919050565b600061356a603183613b3d565b9150613575826143ff565b604082019050919050565b600061358d602a83613b3d565b91506135988261444e565b604082019050919050565b60006135b0603783613b3d565b91506135bb8261449d565b604082019050919050565b60a0820160008201516135dc600085018261362e565b5060208201516135ef6020850182613187565b5060408201516136026040850182613187565b506060820151613615606085018261362e565b5060808201516136286080850182613203565b50505050565b61363781613cea565b82525050565b61364681613cea565b82525050565b60006136588285613293565b91506136648284613293565b91508190509392505050565b60006020820190506136856000830184613196565b92915050565b60006080820190506136a06000830187613196565b6136ad6020830186613196565b6136ba604083018561363d565b6136c76060830184613212565b95945050505050565b60006080820190506136e56000830187613196565b6136f26020830186613196565b6136ff604083018561363d565b81810360608301526137118184613221565b905095945050505050565b6000602082019050818103600083015261373681846131a5565b905092915050565b60006020820190506137536000830184613212565b92915050565b60006020820190508181036000830152613773818461325a565b905092915050565b60006020820190508181036000830152613794816132c4565b9050919050565b600060208201905081810360008301526137b4816132e7565b9050919050565b600060208201905081810360008301526137d48161330a565b9050919050565b600060208201905081810360008301526137f48161332d565b9050919050565b6000602082019050818103600083015261381481613350565b9050919050565b6000602082019050818103600083015261383481613373565b9050919050565b6000602082019050818103600083015261385481613396565b9050919050565b60006020820190508181036000830152613874816133b9565b9050919050565b60006020820190508181036000830152613894816133dc565b9050919050565b600060208201905081810360008301526138b4816133ff565b9050919050565b600060208201905081810360008301526138d481613422565b9050919050565b600060208201905081810360008301526138f481613445565b9050919050565b6000602082019050818103600083015261391481613468565b9050919050565b600060208201905081810360008301526139348161348b565b9050919050565b60006020820190508181036000830152613954816134ae565b9050919050565b60006020820190508181036000830152613974816134d1565b9050919050565b60006020820190508181036000830152613994816134f4565b9050919050565b600060208201905081810360008301526139b481613517565b9050919050565b600060208201905081810360008301526139d48161353a565b9050919050565b600060208201905081810360008301526139f48161355d565b9050919050565b60006020820190508181036000830152613a1481613580565b9050919050565b60006020820190508181036000830152613a34816135a3565b9050919050565b6000602082019050613a50600083018461363d565b92915050565b6000613a60613a71565b9050613a6c8282613d68565b919050565b6000604051905090565b600067ffffffffffffffff821115613a9657613a95613ea0565b5b613a9f82613ecf565b9050602081019050919050565b600067ffffffffffffffff821115613ac757613ac6613ea0565b5b613ad082613ecf565b9050602081019050919050565b6000819050602082019050919050565b600081519050919050565b600081519050919050565b600081519050919050565b6000602082019050919050565b600082825260208201905092915050565b600082825260208201905092915050565b600082825260208201905092915050565b600081905092915050565b6000613b6482613cea565b9150613b6f83613cea565b9250827fffffffffffffffffffffffffffffffffffffffffffffffffffffffffffffffff03821115613ba457613ba3613e13565b5b828201905092915050565b6000613bba82613cea565b9150613bc583613cea565b925082613bd557613bd4613e42565b5b828204905092915050565b6000613beb82613cea565b9150613bf683613cea565b9250817fffffffffffffffffffffffffffffffffffffffffffffffffffffffffffffffff0483118215151615613c2f57613c2e613e13565b5b828202905092915050565b6000613c4582613cea565b9150613c5083613cea565b925082821015613c6357613c62613e13565b5b828203905092915050565b6000613c7982613cca565b9050919050565b6000613c8b82613cca565b9050919050565b60008115159050919050565b60007fffffffff0000000000000000000000000000000000000000000000000000000082169050919050565b600073ffffffffffffffffffffffffffffffffffffffff82169050919050565b6000819050919050565b82818337600083830152505050565b60005b83811015613d21578082015181840152602081019050613d06565b83811115613d30576000848401525b50505050565b60006002820490506001821680613d4e57607f821691505b60208210811415613d6257613d61613e71565b5b50919050565b613d7182613ecf565b810181811067ffffffffffffffff82111715613d9057613d8f613ea0565b5b80604052505050565b6000613da482613cea565b91507fffffffffffffffffffffffffffffffffffffffffffffffffffffffffffffffff821415613dd757613dd6613e13565b5b600182019050919050565b6000613ded82613cea565b9150613df883613cea565b925082613e0857613e07613e42565b5b828206905092915050565b7f4e487b7100000000000000000000000000000000000000000000000000000000600052601160045260246000fd5b7f4e487b7100000000000000000000000000000000000000000000000000000000600052601260045260246000fd5b7f4e487b7100000000000000000000000000000000000000000000000000000000600052602260045260246000fd5b7f4e487b7100000000000000000000000000000000000000000000000000000000600052604160045260246000fd5b6000601f19601f8301169050919050565b7f436f756e7465723a2064656372656d656e74206f766572666c6f770000000000600082015250565b7f4552433732313a207472616e7366657220746f206e6f6e20455243373231526560008201527f63656976657220696d706c656d656e7465720000000000000000000000000000602082015250565b7f4552433732313a207472616e736665722066726f6d20696e636f72726563742060008201527f6f776e6572000000000000000000000000000000000000000000000000000000602082015250565b7f4552433732313a20746f6b656e20616c7265616479206d696e74656400000000600082015250565b7f4f6e6c79206d61726b6574706c616365206f776e65722063616e20757064617460008201527f6520746865206c697374696e6720707269636500000000000000000000000000602082015250565b7f4552433732313a207472616e7366657220746f20746865207a65726f2061646460008201527f7265737300000000000000000000000000000000000000000000000000000000602082015250565b7f4552433732313a20617070726f766520746f2063616c6c657200000000000000600082015250565b7f4552433732313a206f70657261746f7220717565727920666f72206e6f6e657860008201527f697374656e7420746f6b656e0000000000000000000000000000000000000000602082015250565b7f4552433732313a20617070726f76652063616c6c6572206973206e6f74206f7760008201527f6e6572206e6f7220617070726f76656420666f7220616c6c0000000000000000602082015250565b7f4552433732313a2062616c616e636520717565727920666f7220746865207a6560008201527f726f206164647265737300000000000000000000000000000000000000000000602082015250565b7f4552433732313a206f776e657220717565727920666f72206e6f6e657869737460008201527f656e7420746f6b656e0000000000000000000000000000000000000000000000602082015250565b7f45524337323155524953746f726167653a2055524920736574206f66206e6f6e60008201527f6578697374656e7420746f6b656e000000000000000000000000000000000000602082015250565b7f4552433732313a206d696e7420746f20746865207a65726f2061646472657373600082015250565b7f45524337323155524953746f726167653a2055524920717565727920666f722060008201527f6e6f6e6578697374656e7420746f6b656e000000000000000000000000000000602082015250565b7f4552433732313a20617070726f76656420717565727920666f72206e6f6e657860008201527f697374656e7420746f6b656e0000000000000000000000000000000000000000602082015250565b7f4552433732314d657461646174613a2055524920717565727920666f72206e6f60008201527f6e6578697374656e7420746f6b656e0000000000000000000000000000000000602082015250565b7f5072696365206d757374206265206174206c6561737420310000000000000000600082015250565b7f4552433732313a20617070726f76616c20746f2063757272656e74206f776e6560008201527f7200000000000000000000000000000000000000000000000000000000000000602082015250565b7f5072696365206d75737420626520657175616c20746f206c697374696e67207060008201527f7269636500000000000000000000000000000000000000000000000000000000602082015250565b7f4552433732313a207472616e736665722063616c6c6572206973206e6f74206f60008201527f776e6572206e6f7220617070726f766564000000000000000000000000000000602082015250565b7f4f6e6c79204974656d204f776e65722063616e20706572666f726d207468697360008201527f206f7065726174696f6e00000000000000000000000000000000000000000000602082015250565b7f506c65617365207375626d6974207468652061736b696e67207072696365207460008201527f6f20636f6d706c65746520746865207075726368617365000000000000000000602082015250565b6144f581613c6e565b811461450057600080fd5b50565b61450c81613c92565b811461451757600080fd5b50565b61452381613c9e565b811461452e57600080fd5b50565b61453a81613cea565b811461454557600080fd5b5056fea26469706673582212207c9f4a452a7900fe1f65180f8b250ced07ca2c2c6be8e7d2736c3af6501d380764736f6c63430008040033",
  "linkReferences": {},
  "deployedLinkReferences": {}
}